S01300004D65616E477265656E4731342E6D6F7450
S10700002D1DFFFFB0
S1130004E81BE81BE81BE81BE81BE81BE81BE81BD0
S1130014E81BE81BE81BE81BE81BE81BE81BE81BC0
S1130024E81BE81BE81BE81B4615E81BE81BE81B58
S11300340507E81BE81BE81BE81BE81B5515E81B30
S1130044E81BE81BE81BE81BE81BE81BE81BE81B90
S1130054E81BE81BE81B431BE81BE81BE81BE81B25
S1130064E81BE81BE81BE81BE81BE81BE81BE81B70
S10F0074E81BE81BE81BE81BE81BE81B6A
S10700C0EFFFF884CE
S10D00C4000000000000000000002E
S10D00D817B7D1380000A041FA0068
S11300E22006880C314A9805880A9DF098008805F4
S11300F29DF09802FC130100880C5C0F9805880A95
S11301029DF0980088059DF09802FC1301001006EA
S1130112D720028806D161F8EC3B0100C9F007FF41
S1130122ADF0BDF4FAF48B9DF26AF240ADF0DAF46C
S11301328DF2480000EC540100C9F007FFADF0BD98
S1130142F4FAF48B9DF25AF2BFADF0DAF48DF24870
S11301520000C9F007FFADF0BDF4FAF48B9DF25A2A
S1130162F2DFADF0DAF48DF2480000C9F227FFC9DC
S1130172F027FFADF0BDF4FAF48B9DF05AF0F0AD28
S1130182F2BDF4DAF48DF0480000C9F007FFADF0D7
S1130192BDF2FAF28B9DF05CF09DF188089DF05A55
S11301A2F00F8DF16BF09DF09801C9F007FF880103
S11301B29DF2ADF0BDF4DAF48DF2480000C9F00707
S11301C2FFADF0BDF4FAF48B9DF26AF210ADF0DAF1
S11301D2F48DF2480000000000000000C9F007FF9F
S11301E2ADF0BDF4FAF48B9DF25AF2EFADF0DAF40D
S11301F28DF24800000000C9F007FFADF0BDF4FA2B
S1130202F48B9DF26AF220ADF0DAF48DF24800002C
S11302121002D72004C9F0E6FFADF0BDF4FAF48B66
S11302229DF26AF210ADF0BDF6DAF68DF2480000E6
S113023230983AB800FC8A1B00F1980051039802E6
S1130242FC130100300410B800FC8A1B00F1980072
S113025251039802FC130100306400B800FC8A1BAD
S113026200F1980051039802FC130100302800B8F1
S113027200FC8A1B00F1980051029802FC13010051
S1130282302800B800FC8A1B00F19800512898021B
S1130292FCE20000302800B800FC8A1B00F1980040
S11302A2510C9802FCE20000302800B800FC8A1BC2
S11302B200F19800E19802FCE20000306806B80000
S11302C2FC8A1B00F1980051069802FCE2000030FF
S11302D22800B800FC8A1B00F1980051809802FCA7
S11302E2E20000302800B800FC8A1B00F19800519B
S11302F2049802FCE20000302800B800FC8A1B00CB
S1130302C9F007FFE4F48DF45C019DF231499DF2DA
S1130312ADF0BDF6FAF68B9DF35AF3EF8DF36BF263
S11303229DF2ADF0DAF68DF24800008DF49DF0F105
S113033298008DF09802FCE20000302800B800FC1E
S11303428A1B001004D72006F6B804EC7B0300A82D
S113035204BDF0A80A06F0BDF0BDF2FAF28B9DF0DE
S1130362E198008DF09802FCE2000030F401B8003C
S1130372FC8A1B00A804A1B804A80CBDF0A804467A
S1130382F071FF7177F161D8EC510300A80C4407B6
S11303920071FF61E3ECF50300F1980051C098028B
S11303A2FCE2000030F401B800FC8A1B00300800B3
S11303B2B804ECE20300A804BDF0A80A06F0BDF0FC
S11303C2BDF2FAF28B9DF0E198008DF09802FCE206
S11303D2000030F401B800FC8A1B00A804A1B80490
S11303E2A80CBDF0A80446F071FF7177F161D8EC56
S11303F2B803001006D72008F6B806EC420400F64B
S1130402B804EC1904003060EAB800F6B802FC8AB9
S11304121B00A804A1B804A80444130071FF61E3FB
S1130422EC0804003060EAB800F6B802FC8A1B004B
S1130432F1980051189802FCE20000A806A1B8063F
S1130442880C705100BDF2A806BDF0ADF246F07101
S1130452FF7177F161F3EC0104001008D7C9F0F0E1
S113046200ADF0BDF4FAF48B9DF26AF220ADF0DA3D
S1130472F48DF2480000C9F030FFADF0BDF2DAF2BB
S1130482F1480000C9F0E7FFADF0BDF4FAF48B9D2A
S1130492F26AF201ADF0DAF48DF2480000C9F0E339
S11304A2FFADF0BDF4FAF48B9DF25AF2FEADF0DA30
S11304B2F48DF2480000C9F0EFFFADF0BDF4FAF498
S11304C28B9DF26AF201ADF0DAF48DF2480000C9B4
S11304D2F0EBFFADF0BDF4FAF48B9DF26AF201ADDC
S11304E2F0DAF48DF2480000C9F222FFC9F022FFCB
S11304F2ADF0BDF4FAF48B9DF06AF00FADF2BDF4E9
S1130502DAF48DF0480000C9F26000C9F06000AD71
S1130512F0BDF4FAF48B9DF06AF008ADF2BDF4DAA2
S1130522F48DF0480000C9F220FFC9F020FFADF0BD
S1130532BDF4FAF48B9DF06AF008ADF2BDF4DAF47E
S11305428DF0480000C9F26000C9F06000ADF0BD52
S1130552F4FAF48B9DF06AF004ADF2BDF4DAF48D92
S1130562F0480000C9F220FFC9F020FFADF0BDF44D
S1130572FAF48B9DF06AF004ADF2BDF4DAF48DF076
S1130582480000C9F26C00C9F06C00ADF0BDF4FA89
S1130592F48B9DF06AF001ADF2BDF4DAF48DF0480B
S11305A20000C9F22CFFC9F02CFFADF0BDF4FAF43F
S11305B28B9DF06AF001ADF2BDF4DAF48DF04800DF
S11305C200C9F030FFADF0BDF2DAF2F1480000C923
S11305D2F032FFADF0BDF4DAF4F1480000C9F010D6
S11305E200ADF0BDF2DAF25108480000C9F0110082
S11305F2ADF0BDF4DAF451FF480000C9F01200ADC9
S1130602F0BDF2DAF2F1480000C9F031FFADF0BDFD
S1130612F4DAF4E1480000D7C9F0E3FFADF0BDF429
S1130622FAF48B9DF25AF2FEADF0DAF48DF2480040
S113063200C9F0E7FFADF0BDF4FAF48B9DF25AF273
S1130642FEADF0DAF48DF2480000C9F030FFADF0EF
S1130652BDF4FAF48B9DF26AF280ADF0DAF48DF215
S1130662480000D7C9F030FFADF0BDF4FAF48B9D19
S1130672F25AF27FADF0DAF48DF2480000C9F0E7E5
S1130682FFADF0BDF4FAF48B9DF26AF201ADF0DA3B
S1130692F48DF2480000C9F0E3FFADF0BDF4FAF4C2
S11306A28B9DF25AF2FEADF0DAF48DF2480000D7D7
S11306B2C9F030FFADF0BDF4FAF48B9DF26AF20199
S11306C2ADF0DAF48DF2480000D7C9F030FFADF096
S11306D2BDF4FAF48B9DF25AF2FEADF0DAF48DF227
S11306E2480000D7C9F01EFFADF0BDF2FAF2ABBD6F
S11306F2F0316EBDF2A804BDF0BDF4DAF4ADF278C7
S11307020000D761CFC1C3C5C7C6C4C2C061FCC99A
S1130712F0A0FFADF0BDF2DAF2F1480000C9F0A199
S1130722FFADF0BDF4FAF48B9DF26AF280ADF0DA1B
S1130732F48DF2480000C9F0A4FFADF0BDF4FAF460
S11307428B9DF25AF2EFADF0DAF48DF2480000C953
S1130752F0A1FFADF0BDF4FAF48B9DF26AF240AD64
S1130762F0DAF48DF2480000C9F0F300ADF0BDF206
S1130772DAF25110480000C9F0A4FFADF0BDF4FA5A
S1130782F48B9DF25AF2BFADF0DAF48DF248000018
S1130792C9F0A1FFADF0BDF4FAF48B9DF25AF2FE5A
S11307A2ADF0DAF48DF2480000D7C9F007FFADF0DE
S11307B2BDF2DAF2F1480000C9F03400ADF0BDF246
S11307C2DAF2E1480000C9F06E00ADF0BDF2DAF2EF
S11307D2517F480000C9F024FFADF0BDF2DAF251B6
S11307E2FF480000C9F027FFADF0BDF2DAF2F1488C
S11307F20000C9F02EFFADF0BDF2DAF251FF48005D
S113080200D7C9F4F000ADF4BDF0FAF08B9DF66A9E
S1130812F601ADF4BDF2DAF28DF6480000C9F4B681
S113082201ADF4BDF0DAF0300500780000C9F4B48B
S113083201ADF4BDF2DAF2300F0A780000C9F4E631
S1130842FFADF4BDF0FAF08B9DF66AF610ADF4BD7F
S1130852F2DAF28DF6480000C9F4E2FFADF4BDF01D
S1130862FAF08B9DF65AF6EFADF4BDF2DAF28DF69C
S1130872480000C9F4E6FFADF4BDF0FAF08B9DF632
S11308826AF620ADF4BDF2DAF28DF6480000C9F43E
S1130892E2FFADF4BDF0FAF08B9DF65AF6DFADF44B
S11308A2BDF2DAF28DF6480000C9F4E5FFADF4BDFD
S11308B2F0FAF08B9DF66AF680ADF4BDF2DAF28DB1
S11308C2F6480000C9F4E1FFADF4BDF0FAF08B9DE7
S11308D2F65AF67FADF4BDF2DAF28DF6480000C99D
S11308E2F4E6FFADF4BDF0FAF08B9DF66AF640AD86
S11308F2F4BDF2DAF28DF6480000C9F4E2FFADF479
S1130902BDF0FAF08B9DF65AF6BFADF4BDF2DAF201
S11309128DF6480000C9F4E6FFADF4BDF0FAF08BA1
S11309229DF66AF680ADF4BDF2DAF28DF648000067
S1130932C9F4E2FFADF4BDF0FAF08B9DF65AF67FEE
S1130942ADF4BDF2DAF28DF6480000C9F4E6FFAD6B
S1130952F4BDF0FAF08B9DF66AF604ADF4BDF2DA5A
S1130962F28DF6480000C9F4E2FFADF4BDF0FAF0EE
S11309728B9DF65AF6FBADF4BDF2DAF28DF6480021
S113098200C9F4EEFFADF4BDF0FAF08B9DF66AF601
S113099210ADF4BDF2DAF28DF6480000C9F4EAFFB4
S11309A2ADF4BDF0FAF08B9DF66AF610ADF4BDF22B
S11309B2DAF28DF6480000C9F49001ADF4BDF0DA24
S11309C2F0F6780000C9F418FFADF4BDF2DAF230A3
S11309D24FC3780000C9F6B801C9F4B801ADF4BD3B
S11309E2F0FAF0ABBDF48DF45CFE9DF28DF55CFF84
S11309F29DF3ADF6BDF0DAF0ADF2780000C9F4BAB9
S1130A0201C9F2BA01ADF2BDF0FAF0ABBDF28DF25A
S1130A125CFE9DF08DF35CFF9DF1ADF4BDF2DAF264
S1130A22ADF0780000D7C9F2E2FFADF2BDF0FAF002
S1130A328B9DF45AF4EFADF2DAF08DF4480000C95C
S1130A42F2E6FFADF2BDF0FAF08B9DF45AF4EFAD8D
S1130A52F2DAF08DF4480000C9F4B201C9F2B2012D
S1130A62ADF2BDF0FAF0ABBDF28DF26C019DF08DEA
S1130A72F36C009DF1ADF4BDF2DAF2ADF078000052
S1130A82D7C9F4B401C9F2B401ADF2BDF0FAF0ABC6
S1130A92BDF28DF26C019DF08DF36C009DF1ADF40D
S1130AA2BDF2DAF2ADF0780000C9F0E6FFADF0BDB8
S1130AB2F4FAF48B9DF26AF210ADF0DAF48DF24896
S1130AC20000C9F0E2FFADF0BDF4FAF48B9DF25AD6
S1130AD2F2EFADF0DAF48DF2480000D7C9F07A00F3
S1130AE2ADF0BDF4FAF48B9DF26AF201ADF0DAF4E2
S1130AF28DF2480000C9F24002C9F04002ADF0BDD7
S1130B02F4FAF48B9DF05AF0FEADF2BDF4DAF48DF2
S1130B12F0480000C9F0E7FFADF0BDF4FAF48B9D94
S1130B22F26AF240ADF0DAF48DF2480000C9F0E363
S1130B32FFADF0BDF4FAF48B9DF25AF2BFADF0DAD8
S1130B42F48DF2480000C9F0EFFFADF0BDF4FAF401
S1130B528B9DF26AF240ADF0DAF48DF2480000C9DE
S1130B62F0EBFFADF0BDF4FAF48B9DF26AF240AD06
S1130B72F0DAF48DF2480000C9F04202ADF0BDF2A1
S1130B82DAF2F1480000C9F04102ADF0BDF4DAF442
S1130B92F1480000C9F00005ADF0BDF2DAF2301FF1
S1130BA200780000D7C9F0E3FFADF0BDF4FAF48B8E
S1130BB29DF25AF2BFADF0DAF48DF2480000C9F0AA
S1130BC2E7FFADF0BDF4FAF48B9DF25AF2BFADF03B
S1130BD2DAF48DF2480000C9F24002C9F04002ADD5
S1130BE2F0BDF4FAF48B9DF06AF001ADF2BDF4DAD3
S1130BF2F48DF0480000D7C9F24002C9F04002ADBA
S1130C02F0BDF4FAF48B9DF05AF0FEADF2BDF4DAC5
S1130C12F48DF0480000C9F0E7FFADF0BDF4FAF43A
S1130C228B9DF26AF240ADF0DAF48DF2480000C90D
S1130C32F0E3FFADF0BDF4FAF48B9DF25AF2BFADCE
S1130C42F0DAF48DF2480000D7C9F07A00ADF0BDB5
S1130C52F4FAF48B9DF26AF210ADF0DAF48DF248F4
S1130C620000C9F26302C9F06302ADF0BDF4FAF404
S1130C728B9DF06AF004ADF2BDF4DAF48DF0480015
S1130C8200C9F26302C9F06302ADF0BDF4FAF48B59
S1130C929DF05AF0FEADF2BDF4DAF48DF048000096
S1130CA2C9F0D5FFADF0BDF4FAF48B9DF26AF202FD
S1130CB2ADF0DAF48DF2480000C9F0D1FFADF0BD19
S1130CC2F4FAF48B9DF25AF2FDADF0DAF48DF248A7
S1130CD20000C9F06402C9F26402ADF2BDF4FAF490
S1130CE28B9DF2ADF0BDF4DAF48DF2480000C9F246
S1130CF26502C9F06502ADF0BDF4FAF48B9DF06AA9
S1130D02F007ADF2BDF4DAF48DF0480000C9F06AE0
S1130D1202ADF0BDF2DAF2F1480000C9F26702C98D
S1130D22F06702ADF0BDF4FAF48B9DF05AF0F0AD29
S1130D32F2BDF4DAF48DF0480000C9F26702C9F09A
S1130D426702ADF0BDF4FAF48B9DF06AF001ADF2E6
S1130D52BDF4DAF48DF0480000C9F26902C9F06901
S1130D6202ADF0BDF4FAF48B9DF06AF002ADF2BD6F
S1130D72F4DAF48DF0480000C9F27002C9F070028E
S1130D82ADF0BDF4FAF48B9DF06AF020ADF2BDF43F
S1130D92DAF48DF0480000C9F07402ADF0BDF2DA65
S1130DA2F2F1480000C9F07502ADF0BDF4DAF45175
S1130DB207480000C9F07802ADF0BDF2DAF2300360
S1130DC200780000C9F07A02ADF0BDF4DAF4F678E6
S1130DD20000C9F058FFADF0BDF2DAF2E678000087
S1130DE2C9F05AFFADF0BDF4DAF430030078000024
S1130DF2C9F25100C9F05100ADF0BDF4FAF48B9D73
S1130E02F05AF0DFADF2BDF4DAF48DF0480000C917
S1130E12F201FFC9F001FFADF0BDF4FAF48B9DF0CD
S1130E225AF0DFADF2BDF4DAF48DF0480000C9F2F5
S1130E3221FFC9F021FFADF0BDF4FAF48B9DF05A05
S1130E42F0DFADF2BDF4DAF48DF0480000C9F2012E
S1130E52FFC9F001FFADF0BDF4FAF48B9DF05AF036
S1130E62BFADF2BDF4DAF48DF0480000C9F221FFFF
S1130E72C9F021FFADF0BDF4FAF48B9DF05AF0BF36
S1130E82ADF2BDF4DAF48DF0480000C9F25100C9A4
S1130E92F05100ADF0BDF4FAF48B9DF05AF0EFADD1
S1130EA2F2BDF4DAF48DF0480000C9F201FFC9F092
S1130EB201FFADF0BDF4FAF48B9DF05AF0EFADF200
S1130EC2BDF4DAF48DF0480000C9F221FFC9F02123
S1130ED2FFADF0BDF4FAF48B9DF05AF0EFADF2BD24
S1130EE2F4DAF48DF0480000D72002C9F07302ADA1
S1130EF2F0BDF2FAF28B9DF09801C9F07302ADF0E5
S1130F02BDF4DAF4F1480000C9F26302C9F06302E5
S1130F12ADF0BDF4FAF48B9DF06AF004ADF2BDF4C9
S1130F22DAF48DF0480000C9F26302C9F06302AD3D
S1130F32F0BDF4FAF48B9DF06AF001ADF2BDF4DA7F
S1130F42F48DF04800001002D72002C9F26302C9EE
S1130F52F06302ADF0BDF4FAF48B9DF06AF004ADD7
S1130F62F2BDF4DAF48DF0480000C9F26302C9F06C
S1130F726302ADF0BDF4FAF48B9DF05AF0FEADF2CB
S1130F82BDF4DAF48DF0480000C9F07302ADF0BD8F
S1130F92F2FAF28B9DF09801C9F07302ADF0BDF440
S1130FA2DAF4F14800001002D7C9F07A00ADF0BDBE
S1130FB2F4FAF48B9DF26AF210ADF0DAF48DF24891
S1130FC20000C9F26302C9F06302ADF0BDF4FAF4A1
S1130FD28B9DF06AF008ADF2BDF4DAF48DF04800AE
S1130FE200C9F26302C9F06302ADF0BDF4FAF48BF6
S1130FF29DF05AF0FDADF2BDF4DAF48DF048000034
S1131002C9F0D5FFADF0BDF4FAF48B9DF26AF20497
S1131012ADF0DAF48DF2480000C9F0D1FFADF0BDB5
S1131022F4FAF48B9DF25AF2FBADF0DAF48DF24845
S11310320000C9F06402C9F26402ADF2BDF4FAF42C
S11310428B9DF2ADF0BDF4DAF48DF2480000C9F2E2
S11310526502C9F06502ADF0BDF4FAF48B9DF06A45
S1131062F070ADF2BDF4DAF48DF0480000C9F06B13
S113107202ADF0BDF2DAF2F1480000C9F26702C92A
S1131082F06702ADF0BDF4FAF48B9DF05AF00FADA7
S1131092F2BDF4DAF48DF0480000C9F26702C9F037
S11310A26702ADF0BDF4FAF48B9DF06AF010ADF274
S11310B2BDF4DAF48DF0480000C9F06902C9F2699E
S11310C202ADF2BDF4FAF48B9DF2ADF0BDF4DAF4A4
S11310D28DF2480000C9F28002C9F08002ADF0BD71
S11310E2F4FAF48B9DF06AF020ADF2BDF4DAF48DDB
S11310F2F0480000C9F08402ADF0BDF2DAF2F14822
S11311020000C9F08502ADF0BDF4DAF451074800DD
S113111200C9F08802ADF0BDF2DAF2300F007800B7
S113112200C9F08A02ADF0BDF4DAF4300D007800A3
S113113200C9F05CFFADF0BDF2DAF23007007800CE
S113114200C9F05EFFADF0BDF4DAF43002007800BD
S113115200C9F201FFC9F001FFADF0BDF4FAF48B4E
S11311629DF05AF0FBADF2BDF4DAF48DF0480000C4
S1131172C9F221FFC9F021FFADF0BDF4FAF48B9D51
S1131182F05AF0FBADF2BDF4DAF48DF0480000C978
S1131192F25100C9F05100ADF0BDF4FAF48B9DF0A8
S11311A25AF0FDADF2BDF4DAF48DF0480000C9F254
S11311B201FFC9F001FFADF0BDF4FAF48B9DF05AC2
S11311C2F0FDADF2BDF4DAF48DF0480000C9F2216D
S11311D2FFC9F021FFADF0BDF4FAF48B9DF05AF093
S11311E2FDADF2BDF4DAF48DF0480000C9F251000D
S11311F2C9F05100ADF0BDF4FAF48B9DF05AF0FE43
S1131202ADF2BDF4DAF48DF0480000C9F201FFC971
S1131212F001FFADF0BDF4FAF48B9DF05AF0FEAD8F
S1131222F2BDF4DAF48DF0480000C9F221FFC9F0EE
S113123221FFADF0BDF4FAF48B9DF05AF0FEADF24D
S1131242BDF4DAF48DF0480000D72002C9F083021D
S1131252ADF0BDF2FAF28B9DF09801C9F08302ADB4
S1131262F0BDF4DAF4F1480000C9F26302C9F06394
S113127202ADF0BDF4FAF48B9DF06AF008ADF2BD54
S1131282F4DAF48DF0480000C9F26302C9F0630293
S1131292ADF0BDF4FAF48B9DF06AF002ADF2BDF448
S11312A2DAF48DF04800001002D72002C9F263027A
S11312B2C9F06302ADF0BDF4FAF48B9DF06AF00854
S11312C2ADF2BDF4DAF48DF0480000C9F26302C94C
S11312D2F06302ADF0BDF4FAF48B9DF05AF0FDAD6B
S11312E2F2BDF4DAF48DF0480000C9F08302ADF0E7
S11312F2BDF2FAF28B9DF09801C9F08302ADF0BD04
S1131302F4DAF4F14800001002D7C9F07A00ADF023
S1131312BDF4FAF48B9DF26AF240ADF0DAF48DF288
S1131322480000C9F25002C9F05002ADF0BDF4FA0F
S1131332F48B9DF05AF07FADF2BDF4DAF48DF048EF
S11313420000C9F0D5FFADF0BDF4FAF48B9DF26A4A
S1131352F208ADF0DAF48DF2480000C9F0D1FFAD25
S1131362F0BDF4FAF48B9DF25AF2F7ADF0DAF48D93
S1131372F2480000C9F0DDFFADF0BDF4FAF48B9D34
S1131382F26AF208ADF0DAF48DF2480000C9F0D93D
S1131392FFADF0BDF4FAF48B9DF26AF208ADF0DA17
S11313A2F48DF2480000C9F05202ADF0BDF2DAF257
S11313B25120480000C9F05802ADF0BDF4DAF4300F
S11313C20700780000C9F05A02ADF0BDF2DAF2303B
S11313D20300780000C9F05002ADF0BDF4DAF4E184
S11313E2480000C9F05502ADF0BDF2DAF2F148004E
S11313F200C9F05302ADF0BDF4DAF4510B48000019
S1131402C9F25500C9F05500ADF0BDF4FAF48B9D54
S1131412F05AF0FEADF2BDF4DAF48DF0480000C9E2
S1131422F205FFC9F005FFADF0BDF4FAF48B9DF0AF
S11314325AF0FEADF2BDF4DAF48DF0480000C9F2C0
S113144225FFC9F025FFADF0BDF4FAF48B9DF05AE7
S1131452F0FEADF2BDF4DAF48DF0480000D72002BC
S1131462C9F0D1FFADF0BDF4FAF48B9DF25AF2F754
S1131472ADF0DAF48DF2480000C9F05402ADF0BDCB
S1131482F2FAF28B9DF09801C9F05402ADF0BDF46A
S1131492DAF4F1480000C9F0D5FFADF0BDF4FAF476
S11314A28B9DF25AF2F7ADF0DAF48DF2480000C9DE
S11314B2F25002C9F05002ADF0BDF4FAF48B9DF083
S11314C26AF080ADF2BDF4DAF48DF0480000100247
S11314D2D72002C9F25002C9F05002ADF0BDF4FAAD
S11314E2F48B9DF05AF07FADF2BDF4DAF48DF0483E
S11314F20000C9F0D5FFADF0BDF4FAF48B9DF26A99
S1131502F208ADF0DAF48DF2480000C9F0D1FFAD73
S1131512F0BDF4FAF48B9DF25AF2F7ADF0DAF48DE1
S1131522F2480000C9F05402ADF0BDF2FAF28B9D0C
S1131532F09801C9F05402ADF0BDF4DAF4F14800B8
S1131542001002D761CFC1C3C5C7E513E9C6C4C23F
S1131552C061FC61CFC1C3C5C761DFC1C3C5C76177
S1131562EFC1C361CF20C4FCA70B00C9F08802AD50
S1131572F0BDF2FAF2ABBDF0BDE8F4EAF4EBB80068
S1131582ADEAB802FC472400ADF0B8C0ADF2B8C26F
S1131592A8C0BDF4B800A8C2BDF0B80230A470B8A7
S11315A204307D3FB806FC842700ADF0B850ADF29C
S11315B2B852A850BDF2B8BCA852BDF4B8BEA8BC7B
S11315C2BDF0B800A8BEBDF2B802FCAE2300ADF077
S11315D2B84CADF2B84E884C9DF09F12E9C9F00E9A
S11315E2FFADF0BDF4FAF48B9DF0316A9DF05AF030
S11315F20161E8ECFC1500E50EE9C9F004FFADF069
S1131602BDF2FAF28B9DF0313A9DF05AF00161E895
S1131612EC1E1600F50FE951029F0EE9C9F004FF12
S1131622ADF0BDF4FAF48B9DF0311A9DF05AF0013D
S113163261E8EC3D160051039F0EE9C9F00DFFADC0
S1131642F0BDF2FAF28B9DF0317A9DF0D4F061E8AC
S1131652ECAE16008F0FE99DF0D4F061E8ECAE1603
S113166200E50FE9AF04E9BDF4B8B8AF06E9BDF08F
S1131672B8BAA8B8BDF2B800A8BABDF4B802F6B8B0
S11316820430803FB806FC052500ADF0B848ADF241
S1131692B84AA848BDF0B8B4A84ABDF2B8B6A8B4CE
S11316A2BDF4BF04E9A8B6BDF0BF06E9C9F004FF62
S11316B2ADF0BDF2FAF28B9DF0312A9DF05AF001A1
S11316C261E8EC4F1700AF04E9BDF4B8B0AF06E926
S11316D2BDF0B8B2A8B0BDF2B800A8B2BDF4B80269
S11316E2F6B804F6B806FC4A23008DF0D171FF6106
S11316F2E3EC4F17008F0FE99DF0D4F061E8EC4F53
S11317021700E50FE9AF04E9BDF0B8ACAF06E9BDD7
S1131712F2B8AEA8ACBDF4B800A8AEBDF0B802F6FB
S1131722B80430803FB806FCE72400ADF0B844ADFD
S1131732F2B846A844BDF2B8A8A846BDF4B8AAA80F
S1131742A8BDF0BF04E9A8AABDF2BF06E9AF00E94B
S1131752BDF4B8A4AF02E9BDF0B8A6AF04E9BDF286
S1131762B8A0AF06E9BDF4B8A2A8A4BDF0B800A819
S1131772A6BDF2B802A8A0BDF4B804A8A2BDF0B8F0
S113178206FC842700ADF0B840ADF2B842A840BDD3
S1131792F2B89CA842BDF4B89EAF0AE9BDF0B8986D
S11317A2AF0CE9BDF2B89AA89CBDF4B800A89EBDDE
S11317B2F0B802A898BDF2B804A89ABDF4B806FC21
S11317C2052500ADF0B83CADF2B83EA83CBDF0B87A
S11317D294A83EBDF2B896A894BDF4BF0AE9A896AF
S11317E2BDF0BF0CE9AF0AE9BDF2B890AF0CE9BD98
S11317F2F4B892A890BDF0B800A892BDF2B802F66F
S1131802B80430803FB806FC4A23008DF0D171FF42
S113181261D8EC201800F6BF0AE9F6BF0CE98F0E76
S1131822E99DF0CDF100ADF044010061F8EC8418BB
S113183200ADF044010071FF61F3EC4F1800ADF00C
S113184244000061F8EC691800EC2F1B00ADF04471
S1131852020061F8ECB51900ADF044030061F8EC44
S1131862B61A00EC2F1B00C9F28A028F12E99DF00E
S1131872CDF100ADF2BDF4DAF4ADF0780000EC2F56
S11318821B00C9E88A02AF0AE9BDF0B88CAF0CE9C3
S1131892BDF2B88EA88CBDF4B800A88EBDF0B80213
S11318A230DB0FB80430C941B806FC842700ADF020
S11318B2B838ADF2B83AA838BDF2B888A83ABDF43F
S11318C2B88AA888BDF0B800A88ABDF2B802FC8B19
S11318D21D00ADF0B884ADF2B886A884BDF4B8009A
S11318E2A886BDF0B802F6B804300040B806FCC2BF
S11318F22800ADF0B834ADF2B836A834BDF2B880E1
S1131902A836BDF4B882A880BDF0B800A882BDF2A2
S1131912B802F6B80430003FB806FC052500ADF065
S1131922B830ADF2B832A830BDF4B87CA832BDF0FC
S1131932B87E8F12E99DF0CDF100ADF0B82C317B69
S11319429DF0982E982FA82CBDF2B800A82EBDF4B5
S1131952B802FC1C2400ADF0B878ADF2B87AA87CC9
S1131962BDF0B800A87EBDF2B802A878BDF4B804F0
S1131972A87ABDF0B806FC842700ADF0B828ADF211
S1131982B82AA828BDF2B874A82ABDF4B876A874F7
S1131992BDF0B800A876BDF2B802FCAE2300ADF0EB
S11319A2B824ADF2B826A824BDF0DAE8780000EC39
S11319B22F1B00C9E88A02AF0AE9BDF4B870AF0C64
S11319C2E9BDF0B872A870BDF2B800A872BDF4B84F
S11319D202A870BDF0B804A872BDF2B806FC0525D1
S11319E200ADF0B820ADF2B822A820BDF4B86CA8BE
S11319F222BDF0B86EF6B80030803FB802A86CBDC4
S1131A02F2B804A86EBDF4B806FCE72400ADF0B841
S1131A121CADF2B81EA81CBDF0B868A81EBDF2B871
S1131A226A8868986488699865886A9866886B5C2D
S1131A327F98678F12E99DF0CDF100ADF0B81831AF
S1131A427B9DF0981A981BA818BDF4B800A81ABD7B
S1131A52F0B802FC1C2400ADF0B860ADF2B862A884
S1131A6264BDF2B800A866BDF4B802A860BDF0B8BF
S1131A7204A862BDF2B806FC842700ADF0B814AD28
S1131A82F2B816A814BDF4B85CA816BDF0B85EA8E6
S1131A925CBDF2B800A85EBDF4B802FCAE2300AD92
S1131AA2F0B810ADF2B812A810BDF0DAE878000070
S1131AB2EC2F1B00C9E88A02AF0AE9BDF0B858AF9F
S1131AC20CE9BDF2B85AA858BDF4B800A85ABDF042
S1131AD2B802A858BDF2B804A85ABDF4B806FC0569
S1131AE22500ADF0B80CADF2B80EA80CBDF0B85498
S1131AF2A80EBDF2B856A854BDF4B800A856BDF05D
S1131B02B802FC5D2300ADF0B808ADF2B80AA8082B
S1131B12BDF48F12E99DF0CDF100ADF4DAF0CEFB05
S1131B2201BDF2ADF2BDF0DAE87800000010C46144
S1131B32EFC2C061DFC6C4C2C061CFC6C4C2C06145
S1131B42FC61CFC1C3C5C7C6C4C2C061FCC9F0E24F
S1131B52FFADF0BDF4FAF48B9DF25AF2EFADF0DA78
S1131B62F48DF2480000C9F218FFA804BDF0ADF2EA
S1131B72BDF4DAF4ADF0780000C9F0B201ADF0BD05
S1131B82F2DAF2E6780000D72002A806BDF0B80027
S1131B92FC4F1B00EC9B1B0000C9F0E2FFADF0BD43
S1131BA2F2FAF28B9DF0314A9DF05AF00161F8ECA1
S1131BB29A1B00FC830A001002D72004F6B802EC38
S1131BC2D31B0030E803B800FC8A1B00A802A1B8AA
S1131BD202A802BDF2A808BDF0ADF246F061D8EC4D
S1131BE2C51B001004D761CFC1C3C5C7C6C4C2C0D8
S1131BF261FCC9F07700ADF0BDF2DAF2F148000001
S1131C02C9F07900ADF0BDF2DAF2F1480000FC113E
S1131C120700FCAC0700FC5F0400FC040800FCDEC7
S1131C220A00FC4B0C00FCAB0F00FC0C1300C9F0C7
S1131C327800ADF0BDF2DAF2F1480000D72002716B
S1131C427BFAFCF41B00E6B800BDF01002D7FC5C82
S1131C521C00FCA70B00EC581C0061EFC1C3C5615A
S1131C62CF2018717AFA00FCDE0A00C9EC8A02C994
S1131C72F08802ADF0BDF2FAF2ABBDF0BDE8F4EAD1
S1131C82F4EBB800ADEAB802FC472400ADF0B81496
S1131C92ADF2B816A814BDF0B800A816BDF2B80289
S1131CA23072F9B804307F3FB806FC842700ADF0E7
S1131CB2B80CADF2B80EA80CBDF0B810A80EBDF267
S1131CC2B812A810BDF0B800A812BDF2B802FCAE5A
S1131CD22300ADF0B808ADF2B80AA808BDF0DAECFA
S1131CE2780000FCAB0F00FC4C1200FC4B0C00FC17
S1131CF2EB0E00FC0C1300FC601400FC1502003017
S1131D02B80BB800FC8A1B0030DC48B800300E0067
S1131D12B802FC4803003060EAB800FC8A1B0010D9
S1131D221861EFC4C2C061CFD72D1DCBF8DCFE41D0
S1131D320061CF34D8003600E961DF3600E9300AA9
S1131D42E927311E440000DD0EB161CF11A9BBA504
S1131D52A5A7A761DFEFED61CF360AE93000006184
S1131D62DF3016E927311E440000DD0AB161CFBB22
S1131D72A7A761DFEFF161CFFC3F1C000030000038
S1131D82C1C1C1FC501C00EFFE2006A80AB800A87D
S1131D920CB802F19804FC9F1D001006D761EFC134
S1131DA2C3C561CF2058A862BDF0B840A864BDF491
S1131DB2B84288669DECADF0B800ADF4B80230DBF1
S1131DC20FB80430C940B806FCC22800ADF0BDE823
S1131DD2ADF2BDEAADE8B800ADEAB802F6B804F671
S1131DE2B806FC3B23008DF0D171FF61C8EC771E6D
S1131DF200FC4A23008DF0D171FF61C8EC1C1E0067
S1131E028DE898288DE998298DEA982A8DEB0C8023
S1131E12982BA828BDE8A82ABDEAADE8B800ADEA27
S1131E22B802FC5D2300ADF0B834ADF2B8368837A1
S1131E3271FC61C8EC4D1E00A83404FFFFB800A871
S1131E423661D8A1B1B802EC551E00A834B800A876
S1131E5236B802FC1C2400ADF0B824ADF2B82688D2
S1131E62249814882598158826981688270C809813
S1131E7217ECBC1E00ADE8B800ADEAB802FC5D2365
S1131E8200ADF0B838ADF2B83A883B71FC61C8ECE9
S1131E92A81E00A83804FFFFB800A83A61D8A1B16F
S1131EA2B802ECB01E00A838B800A83AB802FC1C6C
S1131EB22400ADF0B814ADF2B816A814B800A816F0
S1131EC2B80230DB0FB80430C940B806FC842700DE
S1131ED2A840B800A842B802ADF0B804ADF2B80602
S1131EE2FCE72400ADF0B810ADF2B812D4EC61F8FE
S1131EF2EC221F00ADF0B800ADF2B802FC2F2200B4
S1131F02ADF0B800ADF2B80230DB0FB80430C93F0F
S1131F12B806FC052500ADF0B80CADF2EC5D1F006F
S1131F22A810B800A812B802F6B804F6B806FC3B2A
S1131F3223008DF0D171FF61C8EC571F00881098FF
S1131F420C8811980D8812980E88130C80980FE44F
S1131F52E8EC611F00A810B80CA812B80EF4E8A8A7
S1131F620CB800A80EB8023000FCB804307F47B8A1
S1131F7206FC4A23008DF0D171FF61E3EC901F004F
S1131F82302200BF14E9F6B818F6EC1B2200A80CA4
S1131F92B800A80EB8023083F9B80430A23EB806DD
S1131FA2FC842700ADF0B800ADF2B802F6B80430F4
S1131FB2003FB806FC052500ADF0B800ADF2B8024A
S1131FC2FC5D2300ADF0B848ADF2B84A88485C0124
S1131FD29DF0F4F1ADF044000061F8ECE41F007AE6
S1131FE2E801A848B82C8849317B982E982FA82C50
S1131FF2B800A82EB802FC1C2400ADF0B820ADF243
S1132002B822D4EC61F8EC282000ADF0B800ADF2AF
S1132012B802F6B80430003FB806FCE72400ADF07D
S1132022B820ADF2B822A810B800A812B802FC2F4A
S11320322200ADF0B83CADF2B83EADF0B800ADF25E
S1132042B802FC5D2300ADF0B84CADF2B84EADF071
S1132052BDF4B830884D317B98329833ADF4B80072
S1132062A832B802FC1C2400ADF0B844ADF2B84664
S1132072A820B800A822B802F6B804304940B8062D
S1132082FC842700A844B800A846B802ADF0B804FE
S1132092ADF2B806FCE72400ADF0B850ADF2B85288
S11320A2A83CB800A83EB802A844B804A846B8069A
S11320B2FCE72400A850B800A852B802ADF0B80456
S11320C2ADF2B806FC052500ADF0B854ADF2B85631
S11320D2A820B800A822B8023022AAB804307D3A57
S11320E2B806FC842700A854B800A856B802ADF07C
S11320F2B804ADF2B806FCE72400ADF0B808ADF2BE
S1132102B80AADF0B800ADF2BDF4B802ADF0B8044F
S1132112ADF4B806FC842700ADF0B81CADF2B81ECD
S1132122ADF0B800ADF2B80230F3FFB804307F333B
S1132132B806FC4A23008DF0D171FF61E3ECF7216C
S113214200305B9CB804302E36B806FC842700AD00
S1132152F0B800ADF2B8023022B2B804304F39B848
S113216206FCE72400ADF0B800ADF2B802A81CB832
S113217204A81EB806FC842700ADF0B800ADF2B87E
S113218202303E87B80430083CB806FC052500AD91
S1132192F0B800ADF2B802A81CB804A81EB806FC38
S11321A2842700ADF0B800ADF2B80230A4AAB80496
S11321B2302A3EB806FCE72400ADF0B800ADF2B810
S11321C202A81CB804A81EB806FC842700A808B8F4
S11321D200A80AB802ADF0B804ADF2B806FC842730
S11321E200ADF0B804ADF2B806FC052500ADF0B8B8
S11321F208ADF2B80AD4E861F8EC15220088089810
S11322021888099819880A981A880B0C80981BEC6C
S11322121D2200A808B818A80AB81AA818BDF0A860
S11322221ABDF2105861EFC4C2C061CFD761EFC1C9
S1132232C361CF200CA814BDE8A816BDEAADE8B866
S113224200ADEAB802F6B804F6B806FC4A23008DDB
S1132252F0D171FF61C8EC7222008DE898088DE913
S113226298098DEA980A8DEB0C80980BEC7A22007F
S1132272ADE8B808ADEAB80AA808BDF0A80ABDF2EC
S1132282100C61EFC2C061CFD7A804BDF0A8067CD0
S113229280BDF2D78C025C80708C035C7F44807FAB
S11322A261E8D78C025C7F6E016DDF04716BFAD733
S11322B2716AFAD7AEF804080016FED7FFDD09AE3C
S11322C2F8040C0016FECCFFD78C035C7F6E026E02
S11322D2016DD7AEF804080016FEEDFFDF14AEF868
S11322E2040C0016FEE2FFDF035100D7AEF8040827
S11322F200168C037E0771FCDE078C03317B6C01B4
S1132302D7AC02614906DC14DF0BAB614904DC0C77
S1132312DF035100D78C03317B6C01D78C037C80A3
S1132322317B6C01D7FE8CFFDF05C9F00100D7FEBB
S1132332A1FF9DF0317B9DF1D7CDF001FE75FF61C8
S1132342F8D7FE8EFF9DF0D7CDF0FFEFEFFE64FFCE
S1132352C9F0000061F8C9F00100D7AEF804040026
S113236216FC992400DF158807317309C9F0FFFFB1
S1132372C9F2FF7FD7CDF000CDF200D7A804BDF299
S1132382A806317303EE2A0071FBFE25003000001B
S113239226F0BDF030000061D8B126F2BDF28DF313
S11323A2317308C9F20000C9F00000D7A804BDF2D5
S11323B2A806311DDE09C9F00000C9F20000D74C9D
S11323C2FFDF11606BF26BF3D1DFEBC9F0FFFFC9E2
S11323D2F2FFFFD72C7FDCDE4C20DEEF81778DF31A
S11323E208311A71FA320000C9F4000061A8F2310E
S11323F21961A8F261EE61A8F561DC61A8F561A832
S1132402F461DC61A8F461FE97DFE18DF59DF08D46
S1132412F49DF1629DF2639DF3D7A80412A80631DC
S1132422752816300000231230000061D8B127311C
S11324327307FE15007172F3D7F19DF09DF19DF2C1
S113244251CF9DF3D7A80412A806440000DF0E134F
S1132452440000300000DF05BDF0BDF2D7579E31C5
S11324621C61EEDC0397EFF7311E9DF2609DF16370
S113247261FBDE16D261F83105100C011AF1001A63
S1132482F2003174F204877173F29DF067311A9D80
S1132492F361D87172F2D78C025C80708C035C7F1A
S11324A244807F61E8D78C025C7F6E016DD78A031A
S11324B2317B9C00AA025C7F317E12247F00BC0225
S11324C2A9BC048A025C7FD261E86C809C0651003C
S11324D29C07AC04311DBC048C0661DC9C068C0791
S11324E261DC9C07D72008A80CB800A80EB802A883
S11324F210B8048812980688137C809807FE03009B
S11325021008D7AEF804040016FC962200DF09A8CE
S113251204BDF0A806BDF2D7AEF804080016FC9676
S11325222200DF09A808BDF0A80ABDF2D7AEF8045C
S1132532040016FE61FFDF1EAEF804080016FE5604
S1132542FFDFCC880777880B617F3175C2C9F00140
S113255200C9F2807FD7AEF804080016FE38FFDD0A
S1132562C3AEF804080016FCCB2200DF1AAEF8044E
S1132572040016FCCB2200DF96A804BDF08807777E
S1132582A80A615FBDF2D7AEF804040016FCCB22A0
S113259200DD912010AEF81604140014FE0FFFAEF5
S11325A2F80408001604100014FE02FFAEF816AC7C
S11325B20A12AC0223143175067CFF7AF8FFA14497
S11325C21800DC1E1531730DAC02BC0A300000BCCD
S11325D20CBC0EEF4BAC0ABC02300000BC04BC06BF
S11325E2EF3E1531731E44000061D318B561790AB8
S11325F2AC0E311EBC0E8C0D61FB9C0D8C0C61FB70
S11326029C0CEFDE15317518A5617902AC06311EFA
S1132612BC068C0561FB9C058C0461FB9C04EFE405
S11326228C004E08DF15AC0461090CBC048C061E38
S11326320E9C068C071E0F9C07EF7A317515AC0CA5
S1132642612904BC048C0E3E069C068C0F3E079C3A
S113265207EF13AC0461290CBC048C063E0E9C06E5
S11326628C073E0F9C0731730651009C00EF2451E6
S1132672FF9C008C047CFF0C019C048C057CFF1CD9
S1132682009C058C067CFF1C009C068C077CFF1CAE
S1132692009C078C046E056E066E07DD18AC0644BA
S11326A20002DE11618902AC04311DBC04AC066176
S11326B2EEBC06EFE8AC0644FF0161D315AC06316B
S11326C21EBC068C0561FB9C058C0461FB9C0461A9
S11326D27902FE03001010D7AC02047E0031751992
S11326E212AC06311EBC068C0561FB9C058C046190
S11326F2FB9C0413A13173E8B1A1BC0244FE006146
S1132702D30D8C006C7F5080BDF2C9F00000D7312C
S11327127519AC06311EBC068C0561FBBC058C0424
S113272261FBBC04617902AC02EFE48C0431051450
S1132732AC04040100BC04DE0B6179068C0731157C
S113274203617902AC06311EBC068C0561FB9C0553
S11327528C0461FB9C04AC04BDF061686E066E07D8
S1132762DF05300000BC028C065C7F738C02317979
S1132772616B9DF28C005C80738C02311A616B9DDB
S1132782F3D7AEF804040016FC962200DF10A80466
S1132792BDF0880B5C8073A806617BBDF2D7AEF8EE
S11327A204080016FC962200DF10A808BDF0880772
S11327B25C8073A80A617BBDF2D7AEF804040016EC
S11327C2FED4FCDF15AEF804080016FCCB2200DFB1
S11327D2BDC9F00100C9F2807FD7AEF80408001623
S11327E2FEB4FCDF15AEF804040016FCCB2200DFB5
S11327F2B9C9F00100C9F2807FD7AEF8040400160B
S1132802FCCB2200DD88AEF804080016FCCB2200C3
S1132812DD982010AEF81604140014FE90FCAEF8F5
S11328220408001604100014FE83FCAEF8162010EF
S1132832AC04B800AC06B802AC0CB808AC0EB80ACA
S1132842300000B804B806B80CB80EFC2D2A0010EB
S113285210AEF816AC0261090A128DF7D1DF068DAB
S1132862F65CFEDD1BADF6311EBDF68DF561FB9DFA
S1132872F58DF461FB9DF48DF361FB9DF3A3EFDA17
S11328828DF76BF6DF1BADF0311DBDF0ADF261EEDD
S1132892BDF2ADF461EEBDF4ADF661EEBDF6B3EF9B
S11328A2DF13BC028DF39C048DF49C058DF59C060C
S11328B28DF69C078C007E089C00FE1BFE1010D730
S11328C2AEF804040016FC962200DF10A804BDF042
S11328D2880B5C8073A806617BBDF2D7AEF804084E
S11328E20016FC962200DF10A808BDF088075C8061
S11328F273A80A617BBDF2D7AEF804040016FE96F3
S1132902FBDF14AEF804080016FE8BFBDFBEC9F031
S11329120100C9F2807FD7AEF804040016FCCB2272
S113292200DF0EAEF804080016FCCB2200DF9DEF98
S1132932DDAEF804080016FE5DFBDF13880773881A
S11329420B617B5C809DF3C9F00000CDF200D7AE31
S1132952F804080016FCCB2200DF13880773880BE7
S1132962617B6C7F9DF3C9F00000CDF280D720100B
S1132972AEF81604140014FE34FBAEF80408001674
S113298204100014FE27FBAEF8162010AC04B804A1
S1132992AC06B806AC0CB808AC0EB80A300000B8E5
S11329A200B802B80CB80EFC0C2D001010AEF816CC
S11329B2AC0261290A12ADF6440000DF08ADF4440A
S11329C2010061D32DADF6311EBDF68DF561FB9D7F
S11329D2F58DF461FB9DF48DF361FB9DF38DF26142
S11329E2FB9DF28DF161FB9DF18DF061FB9DF0A3E6
S11329F2EFC48DF4D1DF15ADF0311DBDF0ADF26140
S1132A02EEBDF2ADF461EEBDF4B3EFE613BC028D9C
S1132A12F19C048DF29C058DF39C068DF49C078C2D
S1132A22007E089C00FEB0FC1010D761EFC1C361A8
S1132A32CF203C88449DF088459DF188469DF288CC
S1132A42479DF388489DF488499DF5884A9DF688F8
S1132A524B9DF7884C980C884D980D884E980E889B
S1132A624F980F885098108851981188529812885C
S1132A725398138DF098148DF198158DF298168D44
S1132A82F398178DF498188DF598198DF6981A8D78
S1132A92F7981B880C981C880D981D880E981E8820
S1132AA20F981F88109820881198218812982288DC
S1132AB2139823A814B830A816B832C9EA000088BB
S1132AC2149DE888159DE98DEA9DEBA816BDF430A6
S1132AD20000BDF6A81CB834A81EB836881C980499
S1132AE2881D98058DEB98069807A81EB80030003B
S1132AF200B802A804DAE8CEFB01BDF013BEF0A8C8
S1132B0206DAE8CEFB05A804DAEACEFB05AEF0BD90
S1132B12F2ADF0B82CADF2B82EA804DAF4CEFB0173
S1132B22BDF013BEF0A806DAF4CEFB05A804DAF66B
S1132B32CEFB05AEF0BDF2ADF0B838ADF2B83AA8AE
S1132B4200DAF4CEFB01BDF013BEF0A802DAF4CE33
S1132B52FB05A800DAF6CEFB05AEF0BDF2ADF0B887
S1132B620CADF2B80EA800DAE8CEFB01BDF413BE38
S1132B72F0A802DAE8CEFB05A800DAEACEFB05AE3D
S1132B82F0BDF6A83806F4BDF0A83A61D8A106F65D
S1132B92BDF2A82EBDF4300000BDF6ADF006F4BDC2
S1132BA2F0ADF261D8A106F6BDF2A838BDF4A83A98
S1132BB2BDF6ADF246F6ADF061F846F461C8ECD369
S1132BC22B00A80C040000B80CA80E61D8A1A1B86F
S1132BD20EADF2BDF4300000BDF6A80C06F4B80840
S1132BE2A80E61D8A106F6B80AF6B8268DF0982484
S1132BF28DF19825F198269827A824BDF2C9F000F2
S1132C0200882C9828882D98298827982A8827981C
S1132C122BFBF8FFADF0610928B804ADF261D8A12D
S1132C2261092AB80688049DF088059DF188069DED
S1132C32F288079DF388089DF488099DF5880A9D0A
S1132C42F6880B9DF78DF0980C8DF1980D8DF29806
S1132C520E8DF3980F8DF498108DF598118DF698CA
S1132C62128DF79813A820BDF6A822BDE8A830DA81
S1132C72F6CEFB01BDF013BEF0A832DAF6CEFB05A8
S1132C82A830DAE8CEFB05AEF0BDF2A818BDE8A87C
S1132C921ABDEAA834DAE8CEFB01BDF413BEF0A8EB
S1132CA236DAE8CEFB05A834DAEACEFB05AEF0BD8F
S1132CB2F6ADF006F4BDF0ADF261D8A106F6BDF2B0
S1132CC2ADF0610910BC10ADF261D8A1610912BC6A
S1132CD212880C9DF0880D9DF1880E9DF2880F9D3F
S1132CE2F388109DF488119DF588129DF688139D32
S1132CF2F78DF498088DF598098DF6980A8DF79852
S1132D020B103C61EFC2C061CFD761EFC1C3C56193
S1132D12CF20FE207AAEF8048201168B9818AEF802
S1132D22048301168B9819AEF8048401168B981A41
S1132D32AEF8048501168B981BAEF8048601168B37
S1132D42981CAEF8048701168B981DAEF80488010E
S1132D52168B981EAEF8048901168B981FAEF804E0
S1132D628A01168B9838AEF8048B01168B9839AE0B
S1132D72F8048C01168B983AAEF8048D01168B98E0
S1132D823BAEF8048E01168B983CAEF8048F011604
S1132D928B983DAEF8049001168B983EAEF80491E0
S1132DA201168B983F8818982C8819982D881A98A0
S1132DB22E881B982F881C9830881D9831881E985D
S1132DC232881F98338838982088399821883A980D
S1132DD222883B9823883C9824883D9825883E98ED
S1132DE226883F9827883371FC61C8ECB22F00F122
S1132DF298089809980A980B980C980D980E980FB1
S1132E028818768808612E9DF0E4E88808768DF0AB
S1132E12614E61F3EC1E2E00880F9DE888197688B6
S1132E2209612E9DF1E4E98809768DF1614E61F321
S1132E32EC382E00F4E98DE8768DF1612E9DE8E4FC
S1132E42EA4BF161F3EC4D2E00F4EA8DE96BEA9D55
S1132E52E98DE89DF1881A76880A612E9DF2E4E8EC
S1132E62880A768DF2614E61F3EC712E00F4E88DDE
S1132E72E9768DF2612E9DE9E4EA4BF261F3EC8688
S1132E822E00F4EA8DE86BEA9DE88DE99DF2881B39
S1132E9276880B612E9DF3E4E9880B768DF3614EFF
S1132EA261F3ECAA2E00F4E98DE8768DF3612E9D90
S1132EB2E8E4EA4BF361F3ECBF2E00F4EA8DE96B2C
S1132EC2EA9DE98DE89DF3881C76880C612E9DF4B9
S1132ED2E4E8880C768DF4614E61F3ECE32E00F4A1
S1132EE2E88DE9768DF4612E9DE9E4EA4BF461F311
S1132EF2ECF82E00F4EA8DE86BEA9DE88DE99DF486
S1132F02881D76880D612E9DF5E4E9880D768DF590
S1132F12614E61F3EC1C2F00F4E98DE8768DF561C6
S1132F222E9DE8E4EA4BF561F3EC312F00F4EA8DCF
S1132F32E96BEA9DE98DE89DF5881E76880E612E7F
S1132F429DF6E4E8880E768DF6614E61F3EC552F1A
S1132F5200F4E88DE9768DF6612E9DE9E4EA4BF6FC
S1132F6261F3EC6A2F00F4EA8DE86BEA9DE88DE9DF
S1132F729DF6881F76880F612E9DF78DE8768DF772
S1132F82612E9DE88DF0982C8DF1982D8DF2982E5E
S1132F928DF3982F8DF498308DF598318DF6983203
S1132FA28DE8983330FFFFB87430FFFFECB62F0082
S1132FB2F6B874F6B876882771FC61C8EC973100CC
S1132FC288747CFF98D088757CFF98D188767CFFC2
S1132FD298D288777CFF98D3A8D0B874A8D2B87650
S1132FE2F198089809980A980B980C980D980E98DD
S1132FF20F8838768808612E9DF0E4E88808768D7B
S1133002F0614E61F3EC0F3000880F9DE888397649
S11330128809612E9DF1E4E98809768DF1614E619A
S1133022F3EC293000F4E98DE8768DF1612E9DE808
S1133032E4EA4BF161F3EC3E3000F4EA8DE96BEA29
S11330429DE98DE89DF1883A76880A612E9DF2E425
S1133052E8880A768DF2614E61F3EC623000F4E89E
S11330628DE9768DF2612E9DE9E4EA4BF261F3EC8F
S1133072773000F4EA8DE86BEA9DE88DE99DF288E9
S11330823B76880B612E9DF3E4E9880B768DF36120
S11330924E61F3EC9B3000F4E98DE8768DF3612EFA
S11330A29DE8E4EA4BF361F3ECB03000F4EA8DE915
S11330B26BEA9DE98DE89DF3883C76880C612E9D30
S11330C2F4E4E8880C768DF4614E61F3ECD43000BC
S11330D2F4E88DE9768DF4612E9DE9E4EA4BF4611E
S11330E2F3ECE93000F4EA8DE86BEA9DE88DE99DA2
S11330F2F4883D76880D612E9DF5E4E9880D768D80
S1133102F5614E61F3EC0D3100F4E98DE8768DF54D
S1133112612E9DE8E4EA4BF561F3EC223100F4EA16
S11331228DE96BEA9DE98DE89DF5883E76880E610E
S11331322E9DF6E4E8880E768DF6614E61F3EC4638
S11331423100F4E88DE9768DF6612E9DE9E4EA4BCF
S1133152F661F3EC5B3100F4EA8DE86BEA9DE88DED
S1133162E99DF6883F76880F612E9DF78DE8768D6E
S1133172F7612E9DE88DF098208DF198218DF298BB
S1133182228DF398238DF498248DF598258DF69845
S1133192268DE8982788209DF088219DF188229D1C
S11331A2F288239DF388249DF488259DF588269D25
S11331B2F688279DF7882C9818882D9819882E98B8
S11331C21A882F981B8830981C8831981D88329849
S11331D21E8833981F8DF098088DF198098DF29806
S11331E20A8DF3980B8DF4980C8DF5980D8DF69845
S11331F20E8DF7980FA808B810A80AB812A80CB830
S11332027CA80EB87EA818B850A81AB852A81CB840
S113321248A81EB84AA87E440000A87C61F844006D
S11332220061E8ECEE3D00A848BDE8A84ABDEAA862
S11332321246EAA81061F846E861E3EC993600A860
S113324212440000A81061F844FFFF61F3EC6C32F1
S113325200A812440000A81061F844FF0061E3ECE6
S1133262853200300800EC923200A81244FF00A814
S11332721061F844FFFF61E3EC8F3200301800EC78
S1133282923200A80CB880A80EEC953200301000DF
S1133292B880F6B882F6B84EA880B84CF1984E9829
S11332A24FA810BDF4A812BDF6A84CBDE8A84EBDA7
S11332B2EAE8E8D3DD15ADF6311EBDF68DF561FB06
S11332C29DF58DF461FB9DF493DFEBFBF8FF302059
S11332D200612980BDF030000061D8B1612982BD4E
S11332E2F2ADF404EB48168B98D48DEB98D5884F45
S11332F298D6884F98D7FBF8FFADF06129D4B80867
S1133302ADF261D8B16129D6B80AA80A440000A86E
S11333120861F844000061F8EC373400DBF8FFA8D8
S113332208BDEA780401884F480601884F4807011E
S1133332AEF804040116ABBDF0AEF804060116ABF8
S1133342BDF28DF075A81012A812D4FDDD07311C50
S113335261EE95DFF9B81213B810DBF8FFADEABDE0
S1133362F2780801884F480A01884F480B01AEF8E9
S113337204080116ABBDF4AEF8040A0116ABBDF69F
S11333828DF475A84812A84AD4FDDD07311C61EEFC
S113339295DFF9BDEA13BDE830200026F2DBF8FF21
S11333A2780C01884F480E01884F480F01A850BD80
S11333B2F4A852BDF6AEF8040C0116ABBDF0AEF89B
S11333C2040E0116ABBDF2E8F0D3DD15ADF6311EE5
S11333D2BDF68DF561FB9DF58DF461FB9DF493DFE4
S11333E2EB8DF46BE898488DF56BE998498DF66B93
S11333F2EA984A8DF76BEB984BDBF8FFA808781034
S113340201884F481201884F481301AEF804100195
S113341216ABBDF4AEF804120116ABBDF68DF4750D
S1133422A85012A852D4FDDD07311C61EE95DFF9D4
S1133432B85213B850A812BDE8300000BDEAF6B87D
S11334429E8810989C8811989DF1989E989FA848F0
S1133452B800A84AB802ADE8B804ADEAB806FCC0A0
S11334624800DBF8FFADF0785801ADF2785A01FC60
S1133472374800ADF0B8D8ADF2B8DAA89CBDF0A8D0
S11334829EBDF2A8D8DAF0CEFB01BDF413BEF0A8BB
S1133492DADAF0CEFB05A8D8DAF2CEFB05AEF0BD3F
S11334A2F6AEF804580116ABBDF2C9F00000A852FA
S11334B2B808300000B80A88086BF0985888096B7D
S11334C2F19859880A6BF2985A880B6BF3985BA8A7
S11334D25A46F6A85861F846F461C8EC583500AE6D
S11334E2F804480114A8D804FFFFB9A8DA61D8A1E6
S11334F2B1BA02FBF8FFA858610910B858A85A617A
S1133502D8A1610912B85AA810BDF0A812BDF2A838
S11335125A46F2A85861F846F061D8EC653500A81D
S11335225A46F6A85861F846F461C8EC653500AE0F
S1133532F804480114A8D804FEFFB9A8DA61D8A196
S1133542B1BA02A85806F0B858A85A61D8A106F22E
S1133552B85AEC653500A8D8DBF8FF784801A8DA38
S1133562784A01A85826F4B808A85A61D8B126F6B0
S1133572B80AA808B800A80AB802ADE8B804ADEAC7
S1133582B806FCC04800DBF8FFADF0785C01ADF290
S1133592785E01FC374800ADF0B8DCADF2B8DEA8C5
S11335A29CBDE8A89EBDEAA8DCDAE8CEFB01BDF426
S11335B213BEF0A8DEDAE8CEFB05A8DCDAEACEFB1D
S11335C205AEF0BDF6AEF8045C0116ABBDF2C9F06F
S11335D20000F6B88E8850988C8851988DF1988E98
S11335E2988F888C6BF098AC888D6BF198AD888E2F
S11335F26BF298AE8DF398AFA8AE46F6A8AC61F81C
S113360246F461C8EC683600A8DC04FFFFB8B0A831
S1133612DE61D8A1B1B8B2FBF8FFA8AC610910BD54
S1133622F0A8AE61D8A1610912BDF2A810BDE8A844
S113363212BDEAADF246EAADF061F846E861D8ECB3
S1133642703600ADF246F6ADF061F846F461C8ECAE
S1133652703600A8DC04FEFFB8B0A8DE61D8A1B1C0
S1133662B8B2EC703600A8DCB8B0A8DEB8B2AEF8D6
S113367204480116ABBDF2C9F0000088B06BF098A3
S11336822888B16BF1982988B26BF2982A88B36BB7
S1133692F3982BEC804500A812440000A81061F8AE
S11336A244000061E8ECC53600E6B800F6B802A8AA
S11336B208B804A80AB806FC374800ADF0B810AD43
S11336C2F2B812A812440000A81061F844FFFF6186
S11336D2F3ECF03600A812440000A81061F844FF8D
S11336E20061E3EC093700300800EC113700A8123E
S11336F244FF00A81061F844FFFF61E3EC0E3700B9
S1133702301800EC113700F6EC113700301000B815
S113371284F6B886F6B846A884B844F19846984721
S1133722A810BDF0A812BDF2A844BDE8A846BDEA9F
S1133732E8E8D3DD15ADF2311EBDF28DF161FB9DDA
S1133742F18DF061FB9DF093DFEBADF004EB4816D5
S11337528B98E08DEB98E1884798E2884798E3FBE1
S1133762F8FFA8E0610984B818A8E261D8A1610948
S113377286B81A302000612918B80830000061D8D0
S1133782B161291AB80AA80A440000A80861F844D9
S1133792000061E8ECB83700FBF8FFA84861291083
S11337A2BDE8A84A61D8B1612912BDEAE6B834F687
S11337B2B836EC8C3B00DBF8FFA808781401884784
S11337C24816018847481701AEF804140116ABBD28
S11337D2F4AEF804160116ABBDF68DF475A81012FA
S11337E2A812D4FDDD07311C61EE95DFF9B812137E
S11337F2B810DBF8FFA8187818018847481A01881E
S113380247481B01A848BDE8A84ABDEAAEF8041817
S11338120116ABBDF4AEF8041A0116ABBDF6E8F41A
S1133822D3DD15ADEA311EBDEA8DE961FB9DE98D5B
S1133832E861FB9DE893DFEBDBF8FFA808781C0145
S11338428847481E018847481F01AEF8041C011628
S1133852ABBDF4AEF8041E0116ABBDF68DF475A82B
S11338624812A84AD4FDDD07311C61EE95DFF9B890
S11338722213B820DBF8FFA81878200188474822D1
S1133882018847482301A850BDF0A852BDF2AEF802
S113389204200116ABBDF4AEF804220116ABBDF64A
S11338A2E8F4D3DD15ADF2311EBDF28DF161FB9D5D
S11338B2F18DF061FB9DF093DFEB88206BF098A013
S11338C288216BF198A188226BF298A288236BF36A
S11338D298A3DBF8FFA808782401884748260188C2
S11338E247482701AEF804240116ABBDF4AEF80430
S11338F2260116ABBDF68DF475A85012A852D4FD5C
S1133902DD07311C61EE95DFF9B85213B850A812E5
S1133912B808300000B80A881098B4881198B5889D
S11339224798B6884798B7ADE8B800ADEAB802A898
S113393208B804A80AB806FCC04800DBF8FFADF0DA
S1133942786001ADF2786201FC374800ADF0B8E46A
S1133952ADF2B8E6A8B4BDE8A8B6BDEAA8E4DAE8D0
S1133962CEFB01BDF413BEF0A8E6DAE8CEFB05A84F
S1133972E4DAEACEFB05AEF0BDF6AEF80460011659
S1133982ABBDF2C9F00000A8A2BDE8300000BDEA58
S11339928DF06BE8985C8DF16BE9985D8DF26BEAC2
S11339A2985E8DF36BEB985FA85E46F6A85C61F8AF
S11339B246F461C8EC313A00AEF8044C0114A8E4B0
S11339C204FFFFB9A8E661D8A1B1BA02FBF8FFA8C7
S11339D25C610910B85CA85E61D8A1610912B85E85
S11339E2A810BDE8A812BDEAA85E46EAA85C61F880
S11339F246E861D8EC3E3A00A85E46F6A85C61F857
S1133A0246F461C8EC3E3A00AEF8044C0114A8E452
S1133A1204FEFFB9A8E661D8A1B1BA02A85C06E81F
S1133A22B85CA85E61D8A106EAB85EEC3E3A00A88A
S1133A32E4DBF8FF784C01A8E6784E01A85C26F492
S1133A42BDE8A85E61D8B126F6BDEAADE8B800AD1E
S1133A52EAB802A808B804A80AB806FCC04800DB01
S1133A62F8FFADF0786401ADF2786601FC374800E6
S1133A72ADF0B8E8ADF2B8EAA8B4BDF4A8B6BDF6A4
S1133A82A8E8DAF4CEFB01BDF013BEF0A8EADAF43A
S1133A92CEFB05A8E8DAF6CEFB05AEF0BDF2AEF831
S1133AA204640116ABBDF6C9F40000F6B89288A00E
S1133AB2989088A19891F19892989388906BF49831
S1133AC26088916BF5986188926BF698628DF7988D
S1133AD263A86246F2A86061F846F061C8EC503B04
S1133AE200A8E804FFFFB8B8A8EA61D8A1B1B8BA3F
S1133AF2FBF8FFA860610910B860A86261D8A161EF
S1133B020912B862A810BDF6A812BDE8A86246E878
S1133B12A86061F846F661D8EC583B00A86246F208
S1133B22A86061F846F061C8EC583B00A8E804FEBE
S1133B32FFB8B8A8EA61D8A1B1B8BAA86006F6B8C5
S1133B4260A86261D8A106E8B862EC583B00A8E814
S1133B52B8B8A8EAB8BAA86026F0BDE8A86261D8E5
S1133B62B126F2BDEAAEF8044C0116ABBDF2C9F0BF
S1133B72000088B86BF0983488B96BF1983588BA2C
S1133B826BF2983688BB6BF39837A812B8083000EA
S1133B9200B80AF6B8A6881098A4881198A5F198D6
S1133BA2A698A7ADE8B800ADEAB802A808B804A878
S1133BB20AB806FCC04800DBF8FFADF0786801AD36
S1133BC2F2786A01FC374800ADF0B8ECADF2B8EE19
S1133BD2A8A4BDE8A8A6BDEAA8ECDAE8CEFB01BD1C
S1133BE2F413BEF0A8EEDAE8CEFB05A8ECDAEACECE
S1133BF2FB05AEF0BDF6AEF804680116ABBDF2C922
S1133C02F00000A852BDE8300000BDEA8DF06BE878
S1133C1298648DF16BE998658DF26BEA98668DF381
S1133C226BEB9867A86646F6A86461F846F461C827
S1133C32ECAD3C00AEF804500114A8EC04FFFFB94B
S1133C42A8EE61D8A1B1BA02FBF8FFA86461091019
S1133C52B864A86661D8A1610912B866A810BDE863
S1133C62A812BDEAA86646EAA86461F846E861D8E3
S1133C72ECBA3C00A86646F6A86461F846F461C84A
S1133C82ECBA3C00AEF804500114A8EC04FEFFB9EF
S1133C92A8EE61D8A1B1BA02A86406E8B864A8661D
S1133CA261D8A106EAB866ECBA3C00A8ECDBF8FFDE
S1133CB2785001A8EE785201A86426F4BDE8A866FB
S1133CC261D8B126F6BDEAADE8B800ADEAB802A8FB
S1133CD208B804A80AB806FCC04800DBF8FFADF037
S1133CE2786C01ADF2786E01FC374800ADF0B8F0A3
S1133CF2ADF2B8F2A8A4BDE8A8A6BDEAA8F0DAE835
S1133D02CEFB01BDF413BEF0A8F2DAE8CEFB05A89F
S1133D12F0DAEACEFB05AEF0BDF6AEF8046C01169D
S1133D22ABBDF2C9F00000F6B89688509894885159
S1133D329895F19896989788946BF098BC88956BAF
S1133D42F198BD88966BF298BE8DF398BFA8BE46D3
S1133D52F6A8BC61F846F461C8ECBD3D00A8F004C5
S1133D62FFFFB8C0A8F261D8A1B1B8C2FBF8FFA89E
S1133D72BC610910BDF0A8BE61D8A1610912BDF2EF
S1133D82A810BDE8A812BDEAADF246EAADF061F8AA
S1133D9246E861D8ECC53D00ADF246F6ADF061F8F7
S1133DA246F461C8ECC53D00A8F004FEFFB8C0A803
S1133DB2F261D8A1B1B8C2ECC53D00A8F0B8C0A860
S1133DC2F2B8C2AEF804500116ABBDF2C9F000005D
S1133DD288C06BF0982888C16BF1982988C26BF26D
S1133DE2982A88C36BF3982BEC864500A848BDF447
S1133DF2A84ABDF6A87E46F6A87C61F846F461F3AB
S1133E02EC604500A87E440000A87C61F844FFFFF2
S1133E1261F3EC313E00A87E440000A87C61F844C2
S1133E22FF0061E3EC4A3E00300800EC523E00A879
S1133E327E44FF00A87C61F844FFFF61E3EC4F3E3F
S1133E4200301800EC523E00F6EC523E00301000F6
S1133E52B888F6B88AF6B842A888B840F198429869
S1133E6243A87CBDF0A87EBDF2A840BDE8A842BD2F
S1133E72EAE8E8D3DD15ADF2311EBDF28DF161FB46
S1133E829DF18DF061FB9DF093DFEBADF004EB4807
S1133E92168B98F48DEB98F5884398F6884398F737
S1133EA2FBF8FFA8F4610988B818A8F661D8A161E3
S1133EB2098AB81A302000612918B8083000006154
S1133EC2D8B161291AB80AA80A440000A80861F8FE
S1133ED244000061E8EC393F00A87CBDF0A87EBD37
S1133EE2F2A84A46F2A84861F846F061F3EC6E453E
S1133EF200DBF8FFE6782801F6782A01A810BDF461
S1133F02A812BDF6A85246F6A85061F846F461C854
S1133F12EC233F00A808DBF8FF782801A80A782AD6
S1133F2201AEF804280116ABB828AEF8042A01162B
S1133F32ABB82AEC804500DBF8FFA808782C01888E
S1133F4243482E018843482F01AEF8042C0116ABD6
S1133F52BDE8AEF8042E0116ABBDEA8DE875A87C67
S1133F6212A87ED4FDDD07311C61EE95DFF9BDF6A2
S1133F7213BDF4DBF8FFA8187830018843483201F6
S1133F828843483301A810BDE8A812BDEAAEF8047C
S1133F92300116ABBDF0AEF804320116ABBDF2E847
S1133FA2F0D3DD15ADEA311EBDEA8DE961FB9DE971
S1133FB28DE861FB9DE893DFEB8DF46BE898548DFB
S1133FC2F56BE998558DF66BEA98568DF76BEB987D
S1133FD257DBF8FFA8087834018843483601884340
S1133FE2483701AEF804340116ABBDF4AEF804361A
S1133FF20116ABBDF68DF475A81012A812D4FDDD1E
S113400207311C61EE95DFF9B82213B820DBF8FF03
S1134012A8187838018843483A018843483B01A8E4
S113402248BDE8A84ABDEAAEF804380116ABBDF0B3
S1134032AEF8043A0116ABBDF2E8F0D3DD15ADEAF1
S1134042311EBDEA8DE961FB9DE98DE861FB9DE8C6
S113405293DFEBDBF8FFA808783C018843483E0174
S11340628843483F01AEF8043C0116ABBDF4AEF8F8
S1134072043E0116ABBDF68DF475A84812A84AD4C5
S1134082FDDD07311C61EE95DFF9B81213B810DBC0
S1134092F8FFA818784001884348420188434843FE
S11340A201A850BDF0A852BDF2AEF804400116AB0F
S11340B2BDF4AEF804420116ABBDF6E8F4D3DD1547
S11340C2ADF2311EBDF28DF161FB9DF18DF061FB0C
S11340D29DF093DFEB88106BF098A888116BF19830
S11340E2A988126BF298AA88136BF398ABA856B8F6
S11340F210300000B812885498C4885598C5884373
S113410298C6884398C7ADE8B800ADEAB802A810CB
S1134112B804A812B806FCC04800DBF8FFADF0787A
S11341227001ADF2787201FC374800ADF0B8F8AD19
S1134132F2B8FAA8C4BDE8A8C6BDEAA8F8DAE8CE7F
S1134142FB01BDF413BEF0A8FADAE8CEFB05A8F829
S1134152DAEACEFB05AEF0BDF6AEF804700116AB9A
S1134162BDF2C9F00000A8AABDE8300000BDEA8D86
S1134172F06BE898688DF16BE998698DF26BEA98B7
S11341826A8DF36BEB986BA86A46F6A86861F846E9
S1134192F461C8EC104200AEF804540114A8F80407
S11341A2FFFFB9A8FA61D8A1B1BA02FBF8FFA86867
S11341B2610954B868A86A61D8A1610956B86AA8A5
S11341C254BDE8A856BDEAA86A46EAA86861F8465A
S11341D2E861D8EC1D4200A86A46F6A86861F84670
S11341E2F461C8EC1D4200AEF804540114A8F804AA
S11341F2FEFFB9A8FA61D8A1B1BA02A86806E8B864
S113420268A86A61D8A106EAB86AEC1D4200A8F857
S1134212DBF8FF785401A8FA785601A86826F4BDA1
S1134222E8A86A61D8B126F6BDEAADE8B800ADEAFD
S1134232B802A810B804A812B806FCC04800DBF8FB
S1134242FFADF0787401ADF2787601FC374800AD29
S1134252F0B8FCADF2B8FEA8C4BDF4A8C6BDF6A879
S1134262FCDAF4CEFB01BDF013BEF0A8FEDAF4CE04
S1134272FB05A8FCDAF6CEFB05AEF0BDF2AEF804FF
S1134282740116ABBDF6C9F40000F6B89A88A89872
S11342929888A99899F1989A989B88986BF4986C45
S11342A288996BF5986D889A6BF6986E8DF7986F6E
S11342B2A86E46F2A86C61F846F061C8EC2F430080
S11342C2A8FC04FFFFB8C8A8FE61D8A1B1B8CAFB14
S11342D2F8FFA86C610954B86CA86E61D8A1610991
S11342E256B86EA854BDF6A856BDE8A86E46E8A80E
S11342F26C61F846F661D8EC374300A86E46F2A822
S11343026C61F846F061C8EC374300A8FC04FEFF78
S1134312B8C8A8FE61D8A1B1B8CAA86C06F6B86C30
S1134322A86E61D8A106E8B86EEC374300A8FCB8C1
S1134332C8A8FEB8CAA86C26F0B82CA86E61D8B179
S113434226F2B82EAEF804540116ABBDF2C9F00041
S11343520088C86BF0982888C96BF1982988CA6BC1
S1134362F2982A88CB6BF3982BF6B87A8828987837
S113437288299879F1987A987BA82AB8183000008D
S1134382B81A882098CC882198CD887B98CE887BCF
S113439298CFA822BDF0300000BDF2A8CCBDE8A899
S11343A2CEBDEAA878DAE8CEFB01BDF413BEF0A8CC
S11343B27ADAE8CEFB05A878DAEACEFB05AEF0BDE0
S11343C2F6ADF4B810ADF6B812A818DAE8CEFB01CF
S11343D2BDF413BEF0A81ADAE8CEFB05A818DAEA8F
S11343E2CEFB05AEF0BDF6ADF4B820ADF6B822A80A
S11343F218DAF0CEFB01BDF413BEF0A81ADAF0CE3F
S1134402FB05A818DAF2CEFB05AEF0BDF6A878DA01
S1134412F0CEFB01BDE813BEF0A87ADAF0CEFB05BC
S1134422A878DAF2CEFB05AEF0BDEAA82006E8BD14
S1134432F0A82261D8A106EABDF2A812BDE83000B4
S113444200BDEAADF006E8BDF0ADF261D8A106EA1E
S1134452BDF2A820BDE8A822BDEAADF246EAADF05D
S113446261F846E861C8EC7B4400ADF4040000BD89
S1134472F4ADF661D8A1A1BDF6ADF2BDE8300000FD
S1134482BDEAADF406E8BDF4ADF661D8A106EABD15
S1134492F6A82CBDE8A82EBDEAADF646EAADF46155
S11344A2F846E861F3EC4D4500ADF646EAADF46139
S11344B2F846E861E8EC804500F6B8728DF0987031
S11344C28DF19871F198729873A870BDF2C9F000D9
S11344D200DBF8FF88104800018811480101887345
S11344E24802018873480301AEF804000116ADF0D6
S11344F2610900BDF0ADF261D8A1610902BDF2DB30
S1134502F8FFA8087844018873484601887348472D
S113451201AEF804440116ABBDE8AEF80446011638
S1134522ABBDEA8DE875A85012A852D4FDDD07315F
S11345321C61EE95DFF9BDF613BDF4ADF246F6AD9E
S1134542F061F846F461E3EC804500A82804FFFF1B
S1134552B828A82A61D8A1B1B82AEC804500F6B8D7
S113456234F6B836A834B828EC7A4500A808B8342A
S1134572A80AB836E6B828F6B82AEC864500F6B892
S113458234F6B836A828BDF0A82ABDF2A834BDF482
S1134592A836BDF68DF098108DF198118DF298120F
S11345A28DF398138DF498148DF598158DF698164D
S11345B28DF79817A876440000A87461F8440000A7
S11345C261F8EC7D4700F198089809980A980B98CD
S11345D20C980D980E980F8DF0768808612E9DF038
S11345E2E4E88808768DF0614E61F3ECF5450088C5
S11345F20F9DE88811768809612E9DF1E4E9880906
S1134602768DF1614E61F3EC0F4600F4E98DE876A4
S11346128DF1612E9DE8E4EA4BF161F3EC2446004E
S1134622F4EA8DE96BEA9DE98DE89DF188127688BA
S11346320A612E9DF2E4E8880A768DF2614E61F3F6
S1134642EC484600F4E88DE9768DF2612E9DE9E4AA
S1134652EA4BF261F3EC5D4600F4EA8DE86BEA9D05
S1134662E88DE99DF2881376880B612E9DF3E4E9C7
S1134672880B768DF3614E61F3EC814600F4E98D8B
S1134682E8768DF3612E9DE8E4EA4BF361F3EC9650
S11346924600F4EA8DE96BEA9DE98DE89DF38814FE
S11346A276880C612E9DF4E4E8880C768DF4614ED4
S11346B261F3ECBA4600F4E88DE9768DF4612E9D3F
S11346C2E9E4EA4BF461F3ECCF4600F4EA8DE86BDB
S11346D2EA9DE88DE99DF4881576880D612E9DF595
S11346E2E4E9880D768DF5614E61F3ECF34600F44E
S11346F2E98DE8768DF5612E9DE8E4EA4BF561F3E8
S1134702EC084700F4EA8DE96BEA9DE98DE89DF532
S1134712881676880E612E9DF6E4E8880E768DF66C
S1134722614E61F3EC2C4700F4E88DE9768DF66175
S11347322E9DE9E4EA4BF661F3EC414700F4EA8D7D
S1134742E86BEA9DE88DE99DF6881776880F612E5D
S11347529DF78DE8768DF7612E9DE88DF098108D8A
S1134762F198118DF298128DF398138DF498148D9B
S1134772F598158DF698168DE8981788109DF68889
S1134782119DF788129DE888139DE988149DEA8893
S1134792159DEB88169DEC88179DED8DF69DF08D89
S11347A2F79DF18DE89DF28DE99DF38DEA9DF48DDF
S11347B2EB9DF58DEC9DF68DED9DF710FE107A6163
S11347C2EFC4C2C061CFD7A80814A80A71FC16DCD2
S11347D219A80671FC12A804DC3761DD717BFACEDC
S11347E2FB0B61CDBDF013BDF2D7F62514F661D8EB
S11347F2B12716A80671FC12A804DE2233BDF0F616
S113480223BDF2ADF012F661D8B12312ADF2EEC9B6
S1134812FF14F62514F661D8B12312A8083561DD18
S1134822717BFACEFB0B61CD14F625BDF0F661D88F
S1134832B123BDF2D7A80A16A80814A80612A80420
S113484261DD717BFACEFB0B61CDBDF013BDF2D7F6
S1134852A80814A80A71FC16DC1AA80671FC12A88E
S113486204DC3861DD717BFACEFB0B61CD15BDF042
S113487217BDF2D7F62514F661D8B12716A806712A
S1134882FC12A804DEDD33BDF0F623BDF2ADF01256
S1134892F661D8B12312ADF2EE0D0014F62514F62A
S11348A261D8B12312A8083561DD717BFACEFB0B06
S11348B261CDF625BDF0F661D8B127BDF2D7A80ABD
S11348C216A80814A80612A80461DD717BFACEFBAF
S10D48D20B61CD15BDF017BDF2D740
S11348DC4D45414E20475245454E2047313400004A
S11348EC0102020303030304040404040404040582
S11348FC0505050505050505050505050505050657
S113490C0606060606060606060606060606060637
S113491C0606060606060606060606060606060726
S113492C0707070707070707070707070707070707
S113493C07070707070707070707070707070707F7
S113494C07070707070707070707070707070707E7
S113495C07070707070707070707070707070708D6
S113496C08080808080808080808080808080808B7
S113497C08080808080808080808080808080808A7
S113498C0808080808080808080808080808080897
S113499C0808080808080808080808080808080887
S11349AC0808080808080808080808080808080877
S11349BC0808080808080808080808080808080867
S11349CC0808080808080808080808080808080857
S11249DC08080808080808080808080808080850
S9031D2DB2
